:0400000080313128F2
:100008007E1480314101161C0A280B2813280C1C69
:100018000E280F2813288231BB2280312F28161E64
:10002800162817281F280C1E1A281B281F2882315B
:10003800A02280312F280B1F222823282F28181DA3
:10004800262827282F280E1D2A282B282F288131DB
:10005800F62180312F287E10090080313328F801DD
:10006800F901FA01FB01FC01FD014001AE01AF01FC
:10007800B001B101B201B301B401B501B601B701D4
:10008800B801B9017E1040018131DA298231262276
:1000980080318131B72180317B03031D54285528D5
:1000A800A5288031F5208031F8008031F520803195
:1000B8004001B9008031F5208031FA008031F52007
:1000C8008031F9008031F52080314001A000A10184
:1000D8002008AE002108AF007908A000A1017A0825
:1000E800A200A30178083907A400A501A50D2208DC
:1000F8002407A6002308253DA70020082607A800F6
:100108002108273DA900FF302805AA00003029054D
:10011800AB002F082B06031D93282E082A06031D63
:1001280096289728A5287A08A000A1012008B400DD
:100138002108B5007808A000A1012008B200210814
:10014800B30008008231C122803140018E19AD28E8
:10015800AE28CB280E1AB128B228CB28FD01FD0AFB
:1001680003101A1C03140318BA28BD2840011A14D6
:10017800BF2840011A1003109A1C03140318C5283D
:10018800C82840019A14CA2840019A10F4288E19E8
:10019800CE28CF28E3280E1ED228D328E328023001
:1001A800FD0080314A20803140013308B100320817
:1001B800B0000E148E148231C4228031F4288E1DB2
:1001C800E628E728F0280E1AEA28EB28F02803305A
:1001D800FD000E108E10F4280430FD00FC01DD280F
:1001E8000800F50140010E1DFA28FB28F6281E30EC
:1001F800F0000030F10081319321803140010E1967
:100208000629072916290130F2007508073C890AD2
:100218000E29F235890B0D297208FF3AF30073088D
:10022800F40527290130F2007508073C890A1D29C1
:10023800F235890B1C297208F3007308F4040E19AF
:100248002629272923290130F2007208F5070830EA
:100258007502031C30293129F62874080800023079
:100268007D06031D38293929532980314A208131D7
:1002780040013008053EF6000030313DF7003308F4
:100288007702031D49293208760203184C294D29A3
:1002980050290E148E1464290E108E106429013012
:1002A800F6007608FC0712307C02031C5C295D29E5
:1002B8006429FC0140010E108E108231C122813167
:1002C80008004001980104309A0037309200383015
:1002D800940037307D018C00A0018D01A1018E01B1
:1002E800A20137308F003F30A3003F3090003F30ED
:1002F800A40015307C018D007D01910192019301CC
:100308002030A500A601A701C8304001AC0002308A
:10031800AD008231AF2281314101161608009C29B7
:100328005530890B952900002030F0020030F13B50
:10033800003071022030031970020318A429A5297E
:100348009429AA2900320032003200320130F0022A
:100358000030F13B700A031DB529710A031DB52948
:10036800B629A6290800FB012830F0000030F1006A
:1003780081319321813140010E19C329C429D9291A
:100388001E30F0000030F1008131932181314001AD
:100398000E1DCF29D029D929FB01FB0A2830F000EE
:1003A8000030F100813193218131080082316F22C0
:1003B800813133304001AC000130AD008231A922D7
:1003C8008131A6304001AC000030AD008231AF224F
:1003D800813140010E108E10FC018B170B17F32989
:1003E8008031312841010E1101304001B60700303B
:1003F800B73D233037027A3003193602031C052A29
:10040800062A0E2A3B088A003A080A00823140016F
:10041800B601B701080004304701900020308F0072
:1004280091018D018C01C7304001AC000230AD0054
:100438008231A922823141010E1118157F304701FE
:100448008E000800400114111A111230F00000301B
:10045800F10082313C22823140011A150A30F00045
:100468000030F100813193218231400114150800D8
:10047800452A0B30F2006230890B402AF20B402AE1
:1004880000320130F0020030F13B700A031D502A9F
:10049800710A031D502A512A3D2A080040013C08D0
:1004A8003D040319582A592A5E2A3D088A003C0847
:1004B8000A0082317D01A712080041010C100B14BB
:1004C800C9304001AC000230AD008231B522823122
:1004D800410116140800823195228231813165214B
:1004E800823182310F2282318231612282310800C9
:1004F80040013E083F040319822A832A882A3F08BC
:100508008A003E080A00823108000F340234C434DD
:100518000234C134023400340034A93402340034C3
:100528000034603045018D008F0191010530930042
:1005380092018030940008007D01A71EA42AA52AF4
:10054800A82A823152228231080040012D08BB00BE
:100558002C08BA00080040012D08BD002C08BC007A
:10056800080040012D08BF002C08BE00080041010A
:100578000C1082317C228231080047018E1308005A
:0C05880047018E1708000800080008005A
:020000040001F9
:08000000FF3FFF3FFF3FFF3F00
:0A000E008F3FFF3F9F3FFF3FFF3F82
:00000001FF
