:0400000080313128F2
:100008007E1480314101161C0A280B2813280C1C69
:100018000E280F28132882316B2280312F28161EB4
:10002800162817281F280C1E1A281B281F2882315B
:10003800502280312F280B1F222823282F28181DF3
:10004800262827282F280E1D2A282B282F288131DB
:10005800972180312F287E10090080313328F8013C
:10006800F901FA01FB01FC01FD014001AE01AF01FC
:10007800B001B101B201B301B401B501B601B701D4
:100088007E10400181317D298131C8218031813143
:100098005A2180317D03031D52285328A22880311C
:1000A800A3208031FA008031A3208031F90080310B
:1000B800A3208031FC008031A3208031FB008031F7
:1000C800A32080314001A000A1012008AE00210832
:1000D800AF007B08A000A1017C08A200A3017A0858
:1000E8007907A400A501A50D22082407A600230866
:1000F800253DA70020082607A8002108273DA900BC
:10010800FF302805AA0000302905AB002F082B0670
:10011800031D90282E082A06031D93289428A22838
:100128007C08A000A1012008B4002108B5007A08C5
:10013800A000A1012008B2002108B3000800F501C1
:1001480040010E1DA828A928A4281E30F000003060
:10015800F10081313621803140010E19B428B528CB
:10016800C4280130F2007508073C890ABC28F2351A
:10017800890BBB287208FF3AF3007308F405D528E9
:100188000130F2007508073C890ACB28F235890B43
:10019800CA287208F3007308F4040E19D428D52865
:1001A800D1280130F2007208F50708307502031CE7
:1001B800DE28DF28A42874080800400198010430CC
:1001C8009A00373092003030940037307D018C002F
:1001D8001030A0008D01A1018E01A20137308F00DF
:1001E8003F30A3003F3090003F30A40015307C0121
:1001F8008D007D019101920193012030A500A60197
:10020800A70175304001AC000230AD0082315F2299
:100218008031410116160800031040019A1D03148D
:10022800031817291A2940019A151C2940019A1107
:10023800803148208131400130080A3EF600003004
:10024800313DF70033087702031D2C293208760266
:1002580003182F29302933299A141A1435299A108A
:100268001A1008003F295530890B38290000203022
:10027800F0020030F13B00307102203003197002A7
:1002880003184729482937294D29003200320032FE
:1002980000320130F0020030F13B700A031D58298A
:1002A800710A031D5829592949290800FD012830D8
:1002B800F0000030F10081313621813140010E1902
:1002C800662967297C291E30F0000030F100813151
:1002D8003621813140010E1D722973297C29FD01C7
:1002E800FD0A2830F0000030F100813136218131DB
:1002F800080082311122813110304001AC000130F8
:10030800AD008231592281311E304001AC000230EB
:10031800AD0082315F2281318B170B1740019A1192
:1003280094298031312841010E1101304001B6076E
:100338000030B73D01303702F43003193602031C90
:10034800A629A729AF2939088A0038080A00813167
:100358004001B601B7010800033047019000203082
:100368008F009101FF308D008C0174304001AC008A
:100378000230AD0082315922813141010E11181528
:100388007F3047018E000800400114111A11123005
:10039800F0000030F1008131DE21813140011A1571
:1003A8000A30F0000030F1008131362181314001FE
:1003B80014150800E7290B30F2006230890BE22996
:1003C800F20BE22900320130F0020030F13B700AF2
:1003D800031DF229710A031DF229F329DF290800F8
:1003E80040013A083B040319FA29FB29002A3B0873
:1003F8008A003A080A0081317D01A71208004101EC
:100408000C100B1476304001AC000230AD00823184
:10041800652282314101161408008231442282315A
:100428008031E12082318131B02182318231032251
:100438008231080080314820823140013308B10000
:100448003208B0009A1582317122823108004001C9
:100458003C083D040319312A322A372A3D088A000C
:100468003C080A0082310800B03401347134023487
:100478000034003400340034593402340034003479
:10048800603045018D0040308F00910105309300A8
:1004980092018030940008007D01A71E542A552A35
:1004A800582A8131F4218231080040012D08B90011
:1004B8002C08B800080040012D08BB002C08BA0021
:1004C800080040012D08BD002C08BC0008004101AF
:1004D8000C1082312B228231080047018E17080048
:0604E800080008000800F6
:020000040001F9
:08000000FF3FFF3FFF3FFF3F00
:0A000E008F3FFF3F9F3FFF3FFF3F82
:00000001FF
