:0400000080313128F2
:100008007E1480314101161C0A280B2813280C1C69
:100018000E280F28132882316A2280312F28161EB5
:10002800162817281F280C1E1A281B281F2882315B
:100038004F2280312F280B1F222823282F28181DF4
:10004800262827282F280E1D2A282B282F288131DB
:10005800962180312F287E10090080313328F8013D
:10006800F901FA01FB01FC01FD014001AE01AF01FC
:10007800B001B101B201B301B401B501B601B701D4
:100088007E10400181317C298131C7218031813145
:10009800592180317D03031D52285328A22880311D
:1000A800A3208031FA008031A3208031F90080310B
:1000B800A3208031FC008031A3208031FB008031F7
:1000C800A32080314001A000A1012008AE00210832
:1000D800AF007B08A000A1017C08A200A3017A0858
:1000E8007907A400A501A50D22082407A600230866
:1000F800253DA70020082607A8002108273DA900BC
:10010800FF302805AA0000302905AB002F082B0670
:10011800031D90282E082A06031D93289428A22838
:100128007C08A000A1012008B4002108B5007A08C5
:10013800A000A1012008B2002108B3000800F501C1
:1001480040010E1DA828A928A4281E30F000003060
:10015800F10081313521803140010E19B428B528CC
:10016800C4280130F2007508073C890ABC28F2351A
:10017800890BBB287208FF3AF3007308F405D528E9
:100188000130F2007508073C890ACB28F235890B43
:10019800CA287208F3007308F4040E19D428D52865
:1001A800D1280130F2007208F50708307502031CE7
:1001B800DE28DF28A42874080800400198010430CC
:1001C8009A00373092003030940037307D018C002F
:1001D800A0018D01A1018E01A20137308F003F30AF
:1001E800A3003F3090003F30A40015307C018D0003
:1001F8007D019101920193012030A500A601A7017C
:1002080074304001AC000230AD0082315E22803192
:10021800410116160800031040019A1D0314031823
:100228001629192940019A151B2940019A11803174
:1002380048208131400130080A3EF6000030313D47
:10024800F70033087702031D2B29320876020318BA
:100258002E292F2932299A141A1434299A101A107F
:1002680008003E295530890B372900002030F0025C
:100278000030F13B0030710220300319700203187E
:100288004629472936294C290032003200320032EB
:100298000130F0020030F13B700A031D5729710A42
:1002A800031D5729582948290800FD012830F00066
:1002B8000030F10081313521813140010E19652965
:1002C80066297B291E30F0000030F100813135218C
:1002D800813140010E1D712972297B29FD01FD0A1A
:1002E8002830F0000030F1008131352181310800DB
:1002F8008231102281310F304001AC000130AD0055
:100308008231582281311D304001AC000230AD00ED
:1003180082315E2281318B170B1740019A11932984
:100328008031312841010E1101304001B6070030FB
:10033800B73D03303702E83003193602031CA529FC
:10034800A629AE2939088A0038080A0081314001F7
:10035800B601B701080003304701900020308F0034
:100368009101FF308D008C0173304001AC000230E8
:10037800AD0082315822813141010E1118157F30AC
:1003880047018E000800400114111A111230F000C4
:100398000030F1008131DD21813140011A150A3028
:1003A800F0000030F1008131352181314001141510
:1003B8000800E6290B30F2006230890BE129F20BC4
:1003C800E12900320130F0020030F13B700A031DD0
:1003D800F129710A031DF129F229DE2908004001DB
:1003E8003A083B040319F929FA29FF293B088A002E
:1003F8003A080A0081317D01A712080041010C105A
:100408000B1475304001AC000230AD00823164221B
:100418008231410116140800823143228231803131
:10042800E12082318131AF21823182310222823151
:10043800080080314820823140013308B100320879
:10044800B0009A15823170228231080040013C08C0
:100458003D040319302A312A362A3D088A003C080F
:100468000A0082310800AF34013470340234003499
:10047800003400340034583402340034003460301E
:1004880045018D0040308F009101053093009201A5
:100498008030940008007D01A71E532A542A572A49
:1004A8008131F3218231080040012D08B9002C0860
:1004B800B800080040012D08BB002C08BA0008004D
:1004C80040012D08BD002C08BC00080041010C109B
:1004D80082312A228231080047018E17080008005D
:0404E8000800080000
:020000040001F9
:08000000FF3FFF3FFF3FFF3F00
:0A000E008F3FFF3F9F3FFF3FFF3F82
:00000001FF
